{
  "address": "0x01a2a9Fb6dD4Dc2C92DbA26dC931DCA40993f33B",
  "abi": [
    {
      "anonymous": false,
      "inputs": [
        {
          "indexed": true,
          "internalType": "address",
          "name": "WhoDidit",
          "type": "address"
        },
        {
          "indexed": false,
          "internalType": "uint256",
          "name": "value",
          "type": "uint256"
        }
      ],
      "name": "Decreamented",
      "type": "event"
    },
    {
      "anonymous": false,
      "inputs": [
        {
          "indexed": true,
          "internalType": "address",
          "name": "whoDidIt",
          "type": "address"
        },
        {
          "indexed": false,
          "internalType": "uint256",
          "name": "value",
          "type": "uint256"
        }
      ],
      "name": "Increamented",
      "type": "event"
    },
    {
      "inputs": [],
      "name": "counter",
      "outputs": [
        {
          "internalType": "uint256",
          "name": "",
          "type": "uint256"
        }
      ],
      "stateMutability": "view",
      "type": "function"
    },
    {
      "inputs": [],
      "name": "dec",
      "outputs": [],
      "stateMutability": "nonpayable",
      "type": "function"
    },
    {
      "inputs": [],
      "name": "inc",
      "outputs": [],
      "stateMutability": "nonpayable",
      "type": "function"
    },
    {
      "inputs": [],
      "name": "owner",
      "outputs": [
        {
          "internalType": "address",
          "name": "",
          "type": "address"
        }
      ],
      "stateMutability": "view",
      "type": "function"
    },
    {
      "inputs": [],
      "name": "reset",
      "outputs": [],
      "stateMutability": "nonpayable",
      "type": "function"
    }
  ],
  "transactionHash": "0x17a8d2ffb1cdf828f2dad429bc5bd490fb703007df21eb68421303d8f92bf489",
  "args": [],
  "numDeployments": 1,
  "solcInputHash": "384c8ce8f59f264ce41704115dbd1cdc",
  "bytecode": "0x608060405260008055600180546001600160a01b0319163317905534801561002657600080fd5b50610279806100366000396000f3fe608060405234801561001057600080fd5b50600436106100575760003560e01c8063371303c01461005c57806361bc221a146100665780638da5cb5b14610082578063b3bcfa82146100ad578063d826f88f146100b5575b600080fd5b6100646100bd565b005b61006f60005481565b6040519081526020015b60405180910390f35b600154610095906001600160a01b031681565b6040516001600160a01b039091168152602001610079565b61006461010c565b61006461019d565b6000805490806100cc83610213565b909155505060005460405190815233907f4889542dbac2c1d6e92dce6bf16035556992a4ce25e935ea08e5c22ea424d1e7906020015b60405180910390a2565b60008054116101545760405162461bcd60e51b815260206004820152600f60248201526e436f756e746572206961205a65726f60881b60448201526064015b60405180910390fd5b6000805490806101638361022c565b909155505060005460405190815233907f0786796a78658bc94138d8fa2b6908ea232632fabc6f9e4c6a27157d2b73d30b90602001610102565b6001546001600160a01b031633146101f75760405162461bcd60e51b815260206004820181905260248201527f4f6e6c79204f776e65722063616e2072657365742074686520636f756e746572604482015260640161014b565b60008055565b634e487b7160e01b600052601160045260246000fd5b600060018201610225576102256101fd565b5060010190565b60008161023b5761023b6101fd565b50600019019056fea26469706673582212204def8cb6f729e1a109887132f983f7c9e6d236667ff014fb50619c985ed212a564736f6c63430008140033",
  "devdoc": {
    "author": "BuidlGuidl",
    "kind": "dev",
    "methods": {},
    "version": 1
  },
  "userdoc": {
    "kind": "user",
    "methods": {},
    "notice": "A smart contract that allows changing a state variable of the contract and tracking the changes It also allows the owner to withdraw the Ether in the contract",
    "version": 1
  },
  "storageLayout": {
    "storage": [
      {
        "astId": 6,
        "contract": "contracts/YourContract.sol:YourContract",
        "label": "counter",
        "offset": 0,
        "slot": "0",
        "type": "t_uint256"
      },
      {
        "astId": 10,
        "contract": "contracts/YourContract.sol:YourContract",
        "label": "owner",
        "offset": 0,
        "slot": "1",
        "type": "t_address"
      }
    ],
    "types": {
      "t_address": {
        "encoding": "inplace",
        "label": "address",
        "numberOfBytes": "20"
      },
      "t_uint256": {
        "encoding": "inplace",
        "label": "uint256",
        "numberOfBytes": "32"
      }
    }
  }
}